{
  "contractName": "Marketplace",
  "abi": [
    {
      "constant": true,
      "inputs": [],
      "name": "name",
      "outputs": [
        {
          "name": "",
          "type": "string"
        }
      ],
      "payable": false,
      "stateMutability": "view",
      "type": "function",
      "signature": "0x06fdde03"
    },
    {
      "constant": true,
      "inputs": [
        {
          "name": "",
          "type": "uint256"
        }
      ],
      "name": "products",
      "outputs": [
        {
          "name": "id",
          "type": "uint256"
        },
        {
          "name": "name",
          "type": "string"
        },
        {
          "name": "price",
          "type": "uint256"
        },
        {
          "name": "owner",
          "type": "address"
        },
        {
          "name": "purchased",
          "type": "bool"
        }
      ],
      "payable": false,
      "stateMutability": "view",
      "type": "function",
      "signature": "0x7acc0b20"
    },
    {
      "constant": true,
      "inputs": [],
      "name": "productCount",
      "outputs": [
        {
          "name": "",
          "type": "uint256"
        }
      ],
      "payable": false,
      "stateMutability": "view",
      "type": "function",
      "signature": "0xe0f6ef87"
    },
    {
      "inputs": [],
      "payable": false,
      "stateMutability": "nonpayable",
      "type": "constructor",
      "signature": "constructor"
    },
    {
      "anonymous": false,
      "inputs": [
        {
          "indexed": false,
          "name": "id",
          "type": "uint256"
        },
        {
          "indexed": false,
          "name": "name",
          "type": "string"
        },
        {
          "indexed": false,
          "name": "price",
          "type": "uint256"
        },
        {
          "indexed": false,
          "name": "owner",
          "type": "address"
        },
        {
          "indexed": false,
          "name": "purchased",
          "type": "bool"
        }
      ],
      "name": "ProductCreated",
      "type": "event",
      "signature": "0xbc59c0c8165864dcceb377dd07d8f431d4303f8e501cb0a0374a10cc68d71836"
    },
    {
      "anonymous": false,
      "inputs": [
        {
          "indexed": false,
          "name": "id",
          "type": "uint256"
        },
        {
          "indexed": false,
          "name": "name",
          "type": "string"
        },
        {
          "indexed": false,
          "name": "price",
          "type": "uint256"
        },
        {
          "indexed": false,
          "name": "owner",
          "type": "address"
        },
        {
          "indexed": false,
          "name": "purchased",
          "type": "bool"
        }
      ],
      "name": "ProductPurchased",
      "type": "event",
      "signature": "0x79558d0d7d4d900e2f15c4cc0a665f1acdbe415e44de900ecdd1e5bf12b56f4e"
    },
    {
      "constant": false,
      "inputs": [
        {
          "name": "_name",
          "type": "string"
        },
        {
          "name": "_price",
          "type": "uint256"
        }
      ],
      "name": "createProduct",
      "outputs": [],
      "payable": false,
      "stateMutability": "nonpayable",
      "type": "function",
      "signature": "0xe9300c6c"
    },
    {
      "constant": false,
      "inputs": [
        {
          "name": "_id",
          "type": "uint256"
        }
      ],
      "name": "purchaseProduct",
      "outputs": [],
      "payable": true,
      "stateMutability": "payable",
      "type": "function",
      "signature": "0x38e76a03"
    }
  ],
  "bytecode": "0x6080604052600060025534801561001557600080fd5b506040805180820190915260148082527f4d61726969612773204d61726b6574706c616365000000000000000000000000602090920191825261005a91600091610060565b506100fb565b828054600181600116156101000203166002900490600052602060002090601f016020900481019282601f106100a157805160ff19168380011785556100ce565b828001600101855582156100ce579182015b828111156100ce5782518255916020019190600101906100b3565b506100da9291506100de565b5090565b6100f891905b808211156100da57600081556001016100e4565b90565b610a0e8061010a6000396000f3fe60806040526004361061006c5763ffffffff7c010000000000000000000000000000000000000000000000000000000060003504166306fdde03811461007157806338e76a03146100fb5780637acc0b201461011a578063e0f6ef87146101e2578063e9300c6c14610209575b600080fd5b34801561007d57600080fd5b506100866102be565b6040805160208082528351818301528351919283929083019185019080838360005b838110156100c05781810151838201526020016100a8565b50505050905090810190601f1680156100ed5780820380516001836020036101000a031916815260200191505b509250505060405180910390f35b6101186004803603602081101561011157600080fd5b503561034c565b005b34801561012657600080fd5b506101446004803603602081101561013d57600080fd5b503561066b565b60408051868152908101849052600160a060020a0383166060820152811515608082015260a06020808301828152875192840192909252865160c084019188019080838360005b838110156101a357818101518382015260200161018b565b50505050905090810190601f1680156101d05780820380516001836020036101000a031916815260200191505b50965050505050505060405180910390f35b3480156101ee57600080fd5b506101f7610743565b60408051918252519081900360200190f35b34801561021557600080fd5b506101186004803603604081101561022c57600080fd5b81019060208101813564010000000081111561024757600080fd5b82018360208201111561025957600080fd5b8035906020019184600183028401116401000000008311171561027b57600080fd5b91908080601f0160208091040260200160405190810160405280939291908181526020018383808284376000920191909152509295505091359250610749915050565b6000805460408051602060026001851615610100026000190190941693909304601f810184900484028201840190925281815292918301828280156103445780601f1061031957610100808354040283529160200191610344565b820191906000526020600020905b81548152906001019060200180831161032757829003601f168201915b505050505081565b61035461090c565b600082815260016020818152604092839020835160a0810185528154815281840180548651600296821615610100026000190190911695909504601f810185900485028601850190965285855290949193858401939092908301828280156103fd5780601f106103d2576101008083540402835291602001916103fd565b820191906000526020600020905b8154815290600101906020018083116103e057829003601f168201915b505050918352505060028201546020820152600390910154600160a060020a038116604083015274010000000000000000000000000000000000000000900460ff16151560609182015281015181519192509060001080156104625750600254825111155b151561046d57600080fd5b604082015134101561047e57600080fd5b60808201511561048d57600080fd5b600160a060020a0381163314156104a357600080fd5b33606083015260016080830181905260008481526020828152604090912084518155818501518051869492936104dd938501920190610947565b5060408281015160028301556060830151600390920180546080909401511515740100000000000000000000000000000000000000000274ff000000000000000000000000000000000000000019600160a060020a0394851673ffffffffffffffffffffffffffffffffffffffff199096169590951794909416939093179092559051908216903480156108fc02916000818181858888f1935050505015801561058b573d6000803e3d6000fd5b507f79558d0d7d4d900e2f15c4cc0a665f1acdbe415e44de900ecdd1e5bf12b56f4e60025483602001518460400151336001604051808681526020018060200185815260200184600160a060020a0316600160a060020a0316815260200183151515158152602001828103825286818151815260200191508051906020019080838360005b83811015610628578181015183820152602001610610565b50505050905090810190601f1680156106555780820380516001836020036101000a031916815260200191505b50965050505050505060405180910390a1505050565b600160208181526000928352604092839020805481840180548651600296821615610100026000190190911695909504601f810185900485028601850190965285855290949193929091908301828280156107075780601f106106dc57610100808354040283529160200191610707565b820191906000526020600020905b8154815290600101906020018083116106ea57829003601f168201915b505050506002830154600390930154919291600160a060020a038116915074010000000000000000000000000000000000000000900460ff1685565b60025481565b815160001061075757600080fd5b6000811161076457600080fd5b600280546001908101918290556040805160a0810182528381526020808201878152828401879052336060840152600060808401819052958652848252929094208151815591518051919492936107c19390850192910190610947565b50604082810151600280840191909155606080850151600390940180546080968701511515740100000000000000000000000000000000000000000274ff000000000000000000000000000000000000000019600160a060020a0390971673ffffffffffffffffffffffffffffffffffffffff1990921691909117959095169490941790935554815181815291820185905233928201839052600093820184905260a0602080840182815288519285019290925287517fbc59c0c8165864dcceb377dd07d8f431d4303f8e501cb0a0374a10cc68d718369693958995899591949193909260c0840191880190808383885b838110156108ca5781810151838201526020016108b2565b50505050905090810190601f1680156108f75780820380516001836020036101000a031916815260200191505b50965050505050505060405180910390a15050565b60a0604051908101604052806000815260200160608152602001600081526020016000600160a060020a031681526020016000151581525090565b828054600181600116156101000203166002900490600052602060002090601f016020900481019282601f1061098857805160ff19168380011785556109b5565b828001600101855582156109b5579182015b828111156109b557825182559160200191906001019061099a565b506109c19291506109c5565b5090565b6109df91905b808211156109c157600081556001016109cb565b9056fea165627a7a723058209cc4a27a4ed6cc40f00fd709e9511e202826eb056c3c5beb86a2479691cda5000029",
  "source": "pragma solidity ^0.5.0;\n\ncontract Marketplace {\n    string public name;\n    mapping(uint => Product) public products;\n    uint public productCount = 0;\n\n    constructor() public {\n        name = \"Mariia's Marketplace\";\n    }\n\n    struct Product {\n        uint id;\n        string name;\n        uint price;\n        address payable owner;\n        bool purchased;\n    }\n\n    event ProductCreated(\n        uint id,\n        string name,\n        uint price,\n        address payable owner,\n        bool purchased\n    );\n\n    event ProductPurchased(\n        uint id,\n        string name,\n        uint price,\n        address payable owner,\n        bool purchased\n    );\n\n    function createProduct(string memory _name, uint _price) public {\n        require(bytes(_name).length > 0);\n        require(_price > 0);\n\n        productCount ++;\n        products[productCount] = Product(productCount, _name, _price, msg.sender, false);\n\n        emit ProductCreated(productCount, _name, _price, msg.sender, false);\n    }\n\n    function purchaseProduct(uint _id) public payable {\n        // Fetch the product\n        Product memory _product = products[_id];\n        // Fetch the owner\n        address payable _seller = _product.owner;\n        // Make sure the product has a valid id\n        require(_product.id > 0 && _product.id <= productCount);\n\n        // Require that there is enough Ether in the transaction\n        require(msg.value >= _product.price);\n        // Require that the product has not been purchased already\n        require(!_product.purchased);\n        // Require that the buyer is not the seller\n        require(_seller != msg.sender);\n\n        // Transfer ownership to the buyer\n        _product.owner = msg.sender;\n    \n        // Mark as purchased\n        _product.purchased = true;\n        // Update the product\n        products[_id] = _product;\n        address(_seller).transfer(msg.value);\n\n        emit ProductPurchased(productCount, _product.name, _product.price, msg.sender, true);\n    }\n}",
  "sourcePath": "/Users/sinuskinamaria/Desktop/repo-folders/web3-marketplace/src/contracts/Marketplace.sol",
  "compiler": {
    "name": "solc",
    "version": "0.5.0+commit.1d4f565a.Emscripten.clang"
  },
  "schemaVersion": "3.0.2",
  "updatedAt": "2024-10-20T09:37:24.502Z",
  "devdoc": {
    "methods": {}
  },
  "userdoc": {
    "methods": {}
  }
}